{
  "contractName": "Counter",
  "abi": [
    {
      "inputs": [],
      "name": "counter",
      "outputs": [
        {
          "internalType": "uint256",
          "name": "",
          "type": "uint256"
        }
      ],
      "stateMutability": "view",
      "type": "function",
      "constant": true
    },
    {
      "inputs": [],
      "name": "increment",
      "outputs": [
        {
          "internalType": "uint256",
          "name": "",
          "type": "uint256"
        }
      ],
      "stateMutability": "nonpayable",
      "type": "function"
    },
    {
      "inputs": [],
      "name": "decrement",
      "outputs": [
        {
          "internalType": "uint256",
          "name": "",
          "type": "uint256"
        }
      ],
      "stateMutability": "nonpayable",
      "type": "function"
    }
  ],
  "bytecode": "0x6080604052601760005534801561001557600080fd5b50610215806100256000396000f3fe608060405234801561001057600080fd5b50600436106100415760003560e01c80632baeceb71461004657806361bc221a14610064578063d09de08a14610082575b600080fd5b61004e6100a0565b60405161005b919061010b565b60405180910390f35b61006c6100cd565b604051610079919061010b565b60405180910390f35b61008a6100d3565b604051610097919061010b565b60405180910390f35b600080600054116100b057600080fd5b60016000546100bf9190610155565b600081905550600054905090565b60005481565b600060016000546100e49190610189565b600081905550600054905090565b6000819050919050565b610105816100f2565b82525050565b600060208201905061012060008301846100fc565b92915050565b7f4e487b7100000000000000000000000000000000000000000000000000000000600052601160045260246000fd5b6000610160826100f2565b915061016b836100f2565b92508282101561017e5761017d610126565b5b828203905092915050565b6000610194826100f2565b915061019f836100f2565b9250827fffffffffffffffffffffffffffffffffffffffffffffffffffffffffffffffff038211156101d4576101d3610126565b5b82820190509291505056fea2646970667358221220803debd5de8875afe9c0625e18b5a698be40e7afdb58aca122466929a6f988b664736f6c63430008090033",
  "immutableReferences": {},
  "source": "pragma solidity ^0.8.9;\r\n\r\ncontract Counter {\r\n  uint256 public counter = 23;\r\n\r\n  function increment() public returns (uint256) {\r\n    counter = counter + 1;\r\n    return counter;\r\n  }\r\n\r\n  function decrement() public returns (uint256) {\r\n    require(counter > 0);\r\n    counter = counter - 1;\r\n    return counter;\r\n  }\r\n}",
  "sourcePath": "E:\\Coding\\DevEther\\Counter\\counter-fe\\counter-sc\\contracts\\Counter.sol",
  "compiler": {
    "name": "solc",
    "version": "0.8.9+commit.e5eed63a.Emscripten.clang"
  },
  "schemaVersion": "3.4.3",
  "updatedAt": "2021-11-14T21:59:03.831Z",
  "networkType": "ethereum",
  "devdoc": {
    "kind": "dev",
    "methods": {},
    "version": 1
  },
  "userdoc": {
    "kind": "user",
    "methods": {},
    "version": 1
  }
}